:1000030041542B434D47463D310D200041542B4372
:100013004D47533D31333633323433383232360D74
:0A0023002000627265616B1A200074
:10004A0012009B12005F12002D12007312002D1273
:05005A00008702002DEB
:10009B00759850E4F587758920758DFD758BFDD2AC
:0200AB008E22A3
:10002D00E4FFFEE4FDFC0DBD00010CBC03F8BDE8D2
:0C003D00F50FBF00010EEF640A4E70E7E3
:010049002294
:10005F00E4FFEF90000393600AF5993099FDC29980
:03006F000F80EF10
:01007200226B
:10007300E4FFEF90000F93600AF5993099FDC29960
:030083000F80EFFC
:010086002257
:10008700E4FFEF90002593600AF5993099FDC29936
:030097000F80EFE8
:01009A002243
:030000000200AD4E
:0C00AD00787FE4F6D8FD75810702004A58
:00000001FF
